:400000000040002011000000AD030000AD03000010B500F0D3F9C04610B512221A4B1A60302001F0BDFF194A194B1A60FE221202184B1A60184B1949196019490A60194AD4
:400040001A60A021C900184A1160184A1A6080221206174B1A608022D202164B1A604022154B1A600132154B1A600132144B1A601449072001F0CAFE072001F0B1FE00226B
:40008000114B1A6010BDC046300010400600008004010B40000301400000014040FF00800403014041FF00800803014042FF008008010B4000010B401C0101401801014090
:4000C00008010140E12000000C020B4010B572B600240FE031486200131959000B00411889881A5AC31858880004104300F058F90134E4B2012CEDD9284801000C31243000
:4001000000F020F9EE221202254B1A60EE22254B1A6099231B04244A1360244A1360244A1360244A136024490B783C22934314221343DBB20B70214A117816230B43DBB28F
:4001400013700F231E4A13601E4A136030331E4A13601E4A1360C0331D4A13601D4A1360D3221D4B1A60D82212011C4B1A60F3221B4B1A60803A1B4B1A604F3A1A4B1A6098
:4001800050321A4B1A603723194A1360194A1360FFF742FF00F0F0F810BDC046A8260000000302400004024000500F4010500F4020500F4030500F4001700F4000700F4042
:4001C000000004401800044000010440180104400002044018020440000304400803044018030440000404400804044018040440000604401806044010B5064C2378002BA3
:4002000007D1054B002B02D0044800E000BF0123237010BD5001002000000000A4260000084B10B5002B03D00749084800E000BF07480368002B00D110BD064B002BFBD0D0
:400240009847F9E70000000054010020A4260000C00000200000000070B504000D0000F00DF92A000021200000F08EF970BDC04610B500F003F9BE204000044A010000F051
:400280009BF900F0F5FB00F05DFE10BDBC03002010B500F011FC00F087FD00F089FF10BD70B50500002400260EE02100002000F059FD431E9841C0B22B191A78904201D04A
:4002C000187001260134E4B21F2CEED9300070BD30B5002304E0CA18002414700133DBB2032BF8D900230DE0C25C002A08D0DC080C1907251D400122AA4025782A43227074
:400300000133DBB21F2BEFD930BDC04600B589B062B60B490420FFF79FFFFFF7A9FF00F009FF0028FBD16846FFF7BAFF002803D003496846FFF7CCFFFFF7AAFFEFE7C046CD
:4003400098030020F0B50025002711E0BB00C658F3B2FF22964308E06A008A181478A419527822700135013BDBB2002BF4D10137042FEBD9F0BDC0460323054A1360054AC7
:400380001360054A13600022044B1A607047C046042102403000304030003140000E3F4010B50A00002102F075F910BD10B502F045F903680C2B00D1FEE7FEE770B50F4E5A
:4003C0000F4D13E029686B68AC68002202E001C901C30432A242FAD1E868002202E0002102C304328242FAD11035013E002EE9D102F02AF9FFF78AFFFEE7C04601000000D4
:40040000382B000010B50E4A136801218B43136000230AE0032B03D89A000A49505800E009489900094A885001332F2BF2D9FFF74DFE034A116801230B43136010BDC046A6
:400440000000104000000000AD0300000000002010B5082001F0C4FC10BDC04610B500F01DF810BD10B5044A1368802109060B431360FFF7EDFF10BD0000244010B5064B2C
:400480001B78002B04D1FFF7E9FF0122024B1A70FFF7E8FF10BDC0466C01002010B580225202204B1A60204A204B1A60204B214A13600024204A14602049214A1160214AAA
:4004C0001360214B1C60082001F094FC0321082001F0AEFC1D49082001F098FC1C4B1C601C4B1C605222FF321B4B1A601B4B1C601B4B1C601B4B1C60503AFF3A1A4B1A705B
:400500001A4B1C701A4B1C801A4B1C801A4B1C801A4B1C8006321A4B1A700132194B1A7010BDC0460000244000080040600024400701008000032440040324401000FC00D5
:40054000100324400002244004022440E9050000C80E2440880E2440480F2440080F2440C80F2440880F2440A4030020A8030020A20300209C0300209E030020B8030020F4
:40058000A9030020A003002070B506000D00141E0BD0082001F02EFC044B1C60044B1E80044B1D80082001F01BFC70BDB0030020B4030020A603002070B506000D00141E46
:4005C0000BD0082001F016FC044B1C60044B1E80044B1D80082001F003FC70BDAC030020AA030020B603002070B5C84B1B68002B00D09847C64B1B78002B02D1C54B1C88AC
:4006000001E0C54B1C88C54B1D68C54B1E680223FF331D4239D0C34A13685B005B081360C14A137820218B431370117810230B43DBB21370BD4B1B68DB060CD4B54B1A8852
:40064000BB4B1B889A420CD0B74A117808230B43DBB2137005E0B44A117802230B43DBB21370B44A1168B44B0B4013600023B34A1360AE4A13600222B14B1A70A94A1368CD
:40068000802109060B431360BAE1F30602D50022AC4B1A600A23334200D1A3E0AA4B1B685B0759D5B30700D59CE0A84B1A68A44B1B78012B04D0002B21D0022B15D044E079
:4006C000934B5B88002B0CD00121A14B1960904B59680919D2B20A7001345A88013A5A8036E002229A4B1A6032E00121984B1960D2B2874B5A800022914B1A7028E084490D
:400700004B881B021A430B899A421AD20121904B19607F4B5B899A4202D29B1A9BB200E000237B494B800120854B18700B78002B03D17F4B1A8014000AE0864B1A801400CC
:4007400006E00222824B1A6002E0002001F05CFB0422814B1A6045E0764B1B689B0441D5B3071DD57D4B1B681F2119407C4B1B685B060BD5794803681F210A001A40016800
:4007800080231B0219404B424B41D11A694A1068694B03401360012014E00821012011E05B4B5988083989B259800829F5D8002008E0574B5B681B19644A1268D2B21A7086
:4007C000013401390029F4D1002808D1594A1368802109020B4313600022584B1A600C225D4B1A60B30700D4EAE0EB0629D54E4B1B789B0625D50023504A13604B4A13603B
:40080000434B1A78002A02D1494B1B8801E0514B1B889C4201D1022300E00A232B40D34041490878034320208343DBB20B700221434B1970002A02D1364B1C8001E0364BD0
:400840001C806B0600D4B9E0404B1B685B080421414A1160434A127893420DD12C4B424A12685A60414A12881A81414A12885A8100221A70012312E03E4A127893420DD124
:40088000234B3D4A12685A603C4A12881A813C4A12885A8101221A70012300E00023002B0ED10122374B1A60374A1C4B1A60374A136810218B4313600222254B1A607DE021
:4008C000194A117820230B43DBB21370104B1B78002B02D1164B1C8801E01E4B1C882C4B1B68DB065AD50A4A13891B1B5380294B1A68802149020A431A601968264A0A40A5
:400900001A601022094B1A604BE0C0467001002074010020A20300209E030020400F2440000E244000002440A8030020880F24409C03002060002440FF5FFFFFC80F2440F7
:40094000A4030020880E2440CC0F2440400324406C002440B8030020C00F2440080324404C0F2440A9030020B0030020B4030020A6030020A0030020AC030020AA03002026
:40098000B6030020800E2440FF0F0000480F24406400244004022440FFFFFEFF04221D4B1A6001221C4B1A601C491D4B19601D490868102303430B601B4B1A60184B1D60AA
:4009C0001A4B1B685B071BD5194B5B88002B0BD0174B5A6812191278D2B216490A6001345A88013A5A8002E0FF22124B1A60124B1B681F221340082BE6D10F3A0F4B1A60C9
:400A00000B4B1B78002B02D10D4B1C8001E00D4B1C8070BDC80F2440800E2440FF0F0000400F2440480F24406C002440000E2440740100204002244008022440800F244052
:400A4000A20300209E03002010B5084B1B78002B06D100F04DF900F09DF90122034B1A7000F04CF800F046FD10BDC0468001002070B5FFF7E9FF051E02D100F0E5FC0500E2
:400A8000002D02D100F094FB0500002D02D00BE0013C00E0074C00F04DFB002801D0002CF6D1002C00D1102500F0AAFA00F04AFA280070BD404B4C0070B50E4E0025002444
:400AC00013E0630904339B000B4A9B581F222240D340DB0707D5300000F062F805003100200000F0D7F820360134002CE9D0280070BDC04600270000BC03002070B5002361
:400B000009E012491A1D92008818002444600120404250500133002BF3D00D4C012311E06668A27EAB1D9B00002008495850012A06D12069002803D0F179228B01F0AAFDCE
:400B400020342B005D1E002BEAD170BDBC0300200027000010B582B0040008001300628869460A80628A01F069FC6B461B8863806B469B7823716B46DB7863716B461B793B
:400B8000A37102B010BDC04630B50B884A889C1A0025CD800079844200DDCC8030BDC046F0B55F4656464D46E0B482B08246837E062B02D10122934601E000229346524653
:400BC000D26891465246946856680093D76900250023019321E0009A2100484600F08CFA718A20883A0001F056FC2A0039003000FFF7B0FF0C37009A2100300000F00EFAA5
:400C0000019021003000FFF7BFFF0A345B46002B02D102339C46E144013553461B8B9D42D9D3019802B01CBC91469A46A346F0BDF0B50A8B8D684F680B69012125E00C0008
:400C4000044003D17E88BA79B21802E07A88BE79921BEE88B24201D3002200E00A00A24202D01E78013E1E70A24202D01C78002C07D188431043002A01D1FA7900E0012250
:400C80001A7049000A3501336246541EA446002AD5D1F0BD70B504008A7E831D9B0013481D58012A04D12800FFF7C2FF050002E0002001F0A9F8A31D9B000C4A9D506309AF
:400CC0001F2214401E3AA240002D07D104339B000649CB1859689143596006E004339B000249CB1859680A435A6070BDBC03002070B5184CBE2252000021200001F0CAFC61
:400D0000154B2380154BA38003227C23FF33E2547A3BFF3BA3771249200020300B00403334CB34C014CB14C00A0020310C0001230CE0A168238B04E013784B7201320A3141
:400D40000300581E002BF7D120342B005D1E002BEFD170BDBC030020FA92FFFF70170000E026000000280DD14301084AD3181B8F8B4209D906308000054BC3580120884015
:400D8000184002E0002000E000207047E0260000BC0300200023024AD380024A13607047BC0300206403002070B5002500263F4B1B68032B06D101F0F0F901223C4BDA803F
:400DC00001F0EFF93A4BDC88E4B2062C23D8A300384AD3589F460122344B1A6001261AE00022324B1A60012615E0FFF741FE00222E4B1A60012501260DE002222B4B1A602F
:400E0000012608E00022294B1A60012603E00322264B1A600026002E0FD001F0BEF9244BDB88DBB29C4205D1214AD188224B0B439BB2D38001F0B5F900261C4B1B68012B91
:400E4000B5D0022B2FD11A4A7333FF33D35CDBB27621FF31525CD2B2002B24D1590117484118098B8A421ED21149088980B2BB246400095B89B2884215D05B010F49CB1808
:400E80009C6893009A185300E41801F086F9084B1A8992B2BB2149005A52228892B202315A5201F07EF9280070BDC04664030020BC030020B42A00000080FFFF00270000A6
:400EC000FF231940062902D08318002119715300195AC31859808218002313727047C04670B506000D00012305E0220029003000FFF7E6FF23005C1E002BF6D170BDC0465E
:400F000010B54001054B1B188A00511848009A6894466044997EFFF7E3FF10BD0027000070B505004301064AD3181B8B04E021002800FFF7E5FF23005C1E002BF7D170BD77
:400F40000027000010B5012303E02000FFF7E8FF23005C1E002BF8D110BDC04630B5012307E0FF231340062B02D063005D5A1D5223005C1E002BF4D130BDC046F8B54F466A
:400F80004646C0B405004301164AD3185A6891461B8B1FE06A01134B9B18A200121957009A6894466744DE683000610009198A00D969884690449A7E062A01D06000301810
:400FC0003900FFF7CBFF4B46598A3888424601F056FA23005C1E002BDCD10CBC90469946F8BDC0460027000010B5012303E02000FFF7C4FF23005C1E002BF8D110BDC0461E
:4010000010B5FFF7F1FF10BD9840504380235B009A1A51434018000A7047C046F0B5474680B482B007000E00019201233EE06300985BF3185988884205D3431A3219002535
:401040001572012201E00B1A0022002A11D17D79AB420ED933191B7A3A7A934205D3220001993000FFF72CFF1FE03219013313721BE03D79AB4204D97D79AB4215D8002A01
:4010800013D1FF23019A1340062B0ED00902331998461B79194308230122FFF7B5FF020A6300F3185A804346187123005C1E002BBDD1002002B004BC9046F0BDF0B547460D
:4010C00080B407000E00904601230FE0FF2342461340062B09D06500A85BE95B00238022FFF792FF80B2E853A85323005C1E002BECD104BC9046F0BD10B5FFF7DFFF10BD29
:4011000030B5084803680F24A3431900064D2B780F2213400B43E13293432A78A2431343036030BD00FF284062F1FF0F10B5FFF7E7FF10BD024BDB68802018407047C04684
:40114000BC03002010B50E4BDB68DB030DD400280DD1430904339B00094A9B581F220240D340DB0705D4012404E0112402E0012400E00024002C01D100F082FC200010BD13
:40118000BC03002010B5084BDB68DB0307D4074B1B78012B05D100F0CFFB002003E0112001E00120404210BDBC0300206803002010B50C4BDB681B0612D40024012040427F
:4011C0000BE02000FFF7BEFF002805D10022064B5A70FFF7D7FF04E00134002CF1D000E0112010BDBC03002068030020F8B54F464646C0B401280BD0022804D00023994696
:401200000633984607E0052399460023984602E0002399469846144C00251FE000F0BDFF2268136821698B43136066683268A77E0721B9408A434146B9400A433260227E6C
:40124000494691400B4322681360A268136861698B43136000F0A5FF1C3401351F2DDDD90CBC90469946F8BD342700007047C046074A084B1A6001380002074B1860054B5A
:401280001B68002BFBDB054A024B1A607047C04640000040000001400003014040FF0080074A084B1A6001380002074B1860054B1B68002BFBDB054A024B1A607047C04649
:4012C00041000040000001400403014041FF00804001024B18184368988970470027000010B50B4B9C7F42004003801A01238B40013B6343984205D911028A1A934203D37C
:40130000402002E0C02000E00020C0B210BDC046BC03002010B50C00FFF7DAFF40002188FFF7DEFFA07310BDF0B5474680B488B0050043013E4AD3185C689F68FA21890062
:401340003C4801F0EFF80600C30700D5013601AB394ADA82FA2292001A82C8325A82228A9A822200123204920C2323800433A3810023A3735521280000F08EFC0021002304
:401380009C46002207E07B7A994202D239888C4619000A3701326B012548C318DB7E9A42F1D3637A01AFBB76F976A37ADB00234AD3185B6802930C239846A04443460393EC
:4013C000FA239B00604658431D4901F0ABF83883380000F0C5FF019001E05B00A381A3899E42FAD8174B984201D8002600E006265521280000F050FCA37ADB000F4AD31827
:401400005B6801A84360637A83764346836000F0D7FF208021002800FFF77CFF5521280000F03AFC304308B004BC9046F0BDC04600270000570B0000C05D0000D02A000063
:40144000FF0F0000880D010070B50024002504E02000FFF769FF05430134002CF8D0280070BDC04610B5002407E06301044AD31859682000FFF74EFF0134002CF5D010BDA8
:401480000027000070B505000E00140000F085FE2B685C4034405C402C6000F082FE70BD10B50022F02109010248FFF7EBFF00F0D5FA10BD0004024010B504000C4B1B782D
:4014C000834214D0012B01D1FFF7EAFF012C05D100F03EF90122064B1A7008E0022C06D0042C04D0032C02D00022014B1A7010BD6803002010B5FFF719FEFFF7B3FF002063
:40150000FFF774FE00217C23FF33054AD1540020FFF7D2FF0120FFF7CFFF002010BDC046BC030020014A024B1A6070470002000108002840F0B5474680B482B00500430122
:40154000214AD3185A689C68138801279F40013F0A2902D908000A3800E000200A23984688444346642B01D9642398467843642100F0D8FF060040467843642100F0D2FF53
:40158000020000270023019313E04B00185B864208D80B00824201D207E00123591E002BF3D104E00623019301E0062301930A3401376B010449CB181B8B9F42EDD30198AE
:4015C00002B004BC9046F0BD00270000F8B54F464646C0B4070046688468B57AA84601237F200022914608E0B3185B7A994500D29946984200D9180013005A1E002BF3D1B7
:4016000000210CE0A3185B7A984200D91800130000E001235A1E002BF4D10A3401313B8B9942F6D34346002B13D0132813D80D49EA008A1850686B1EDB00CB18596800F09A
:4016400071FF4F4647437E2F07D8013DB572012004E0002002E0002000E000200CBC90469946F8BDD02A0000F0B55F4656464D46E0B482B007008A4643689B461B8801222F
:401680009A401300013B019301234AE05B465B195B7A9946BB686A00D05A4C46002208E05919497A8C4202D96800C05A0C000A330132F97E8A42F3D364235843019900F072
:4016C00031FF64306043514600F02CFF814500D381465B465B194A465A72BC6800261CE06B00185B64235843019900F01BFF643063195B7A584353464A465343984203D228
:40170000631900225A7206E0C01A3230642100F009FF631958720A340136FB7E9E42DFD32B005D1E002BB1D102B01CBC91469A46A346F0BD10B5054AC02314689C432043FB
:4017400010600800FFF7ACFD10BDC046C400002010B5114B7C22FF329A5CBD214900585C824208D0FFF742FD0B4BBD225200995C7C22FF329954FFF7D5FEC022D200F02143
:4017800009010648FFF77EFE054B1B68054A1343054A136010BDC046BC03002000040240C40000202008E8810400284070B5837ADB000D4A9C580930050000F0EEFC0B4E93
:4017C00032680B4B13400B4A11786D5C0A4A126851184A7A12042A431343234324042343336000F0DEFC70BDD02A00000800284000FB80FBE02A00003805002010B5054B51
:401800001B785B01044AD3185B689989987BFFF791FF10BD6B03002000270000028801239340013B1B04014A53607047C400002070B500F0B2FC04001E4B1B681E4A13439A
:401840001E4A13601E4B987FFFF712FD1D4A1E4B1A601D4B1B68002BFBDB1C4A1A4B1A601B4E3568572000F08FFC1A4B2B401A4A13433360F0235B0000E0013B174A126813
:40188000120701D4002BF8D1114B1D60094D144B2A681343094A1360112000F0A1FAE72000F072FC6A680F4B1A60200000F079FC70BDC046C40000202008E88104002840AA
:4018C000BC030020410000400000014041FF00800800284000E8FFBFF0060040100028402018E8810C00284010B5044AD36804490B43D360FFF79CFF10BDC046BC0300204F
:401900008000010070B50400857E067E00F045FC23681B680F22B24093431A000423B3401343666832680721A9408A4332602268136000F036FC70BDF8B51F4B1B785B018A
:401940001E4AD3185F681E4B7C22FF329A5CBD214900585C824208D0FFF748FC184BBD225200995C7C22FF329954164C00232370114E3378114D5B01EB1899682378DBB221
:401980009A00D3185A008A180F4B1A603800FFF70DFF33785B0158592278D2B2D3009A1A9300C018094B1860FFF7ACFF084800F0D5F9FFF799FFF8BD6B030020002700005D
:4019C000BC0300206A030020380500203C050020B522000010B54001054BC058CB00591A8B00C018034B1860FFF78CFF10BDC046002700003C050020F8B50400067E857EFD
:401A000000F0CBFB636819680723AB40994327683B680F22B24093433B607C22FF320E4FBA5C002A05D10623AB4019436368196008E0022A06D10332B24013436268116054
:401A400022681360A1680B68647E0122A24093430B6000F0A6FBF8BDBC03002010B5064B1B78012B06D1054B1868FFF7C5FF0022014B1A7010BDC0466C0300203C050020AF
:401A800070B5104E4301F3185D68C0B20E4C20700120FFF711FDFFF7E1FF23785B019A590A4B1A600A4BDA687F218A43DA602178DA680A43DA602800FFF7B0FEFFF79EFE81
:401AC00070BDC046002700006B0300203C050020BC03002070B54301134AD3185D68C9B2124C217099682378DBB29A00D3185A008A180F4B1A60FFF7C3FF2800FFF756FE36
:401B00002378DBB20B49DA00D31A98000B689C4660440860FFF7F6FE0122074B1A70074800F01CF970BDC046002700006A030020380500203C0500206C0300207122000065
:401B4000F0B5574680B484B0019043014F4AD3185B689A461D000935012303E0002003AB985413005A1E002BF8D153461A8801239340013B59430800642100F0D3FC0600C8
:401B8000002300936BE0019B5B01404AD3189F68009A9300944663445A00BF18012304E04023AB54B9184B7213005A1E002BF7D1402400990198FFF78DFFFFF795FE344B3B
:401BC00000E0013B334AD26812060DD5002BF8D101330AE05300DB5B9E4203D9A9180B78A3430B70130000E001235A1E002BF1D1640801330FE0A9180B782343DBB20B705F
:401C0000B8184372002C05D10B78002B02D101330B70437213005A1E002BECD1002CC8D1013307E003AB9B181878A95C884200D2197013005A1E002BF4D100990198FFF727
:401C400049FFFFF751FE124B00E0013B114AD268120601D5002BF8D1009B01330093019B5B010A4AD3181B8B009A9A428BD3012305E003AB995C53469B18597213005A1E86
:401C8000002BF6D104B004BC9246F0BD00270000004C1D00BC03002070B504000D004601174BF618174BDB68DB0324D4736800229A7229002000FFF743FF3000FFF786FC30
:401CC0000028F6D129003000FFF7CEFC2000FFF7D7FEFFF731FE0C4B00E0013B094AD268120601D5002BF8D1002B06D029002000FFF720FC02E0112000E0102070BDC04638
:401D000000270000BC030020006CDC028423014AD05070470000002010B5040000F03DFA044A1168044B0B40A4031C43146000F038FA10BD10E400E0FF3FFFFF802292026A
:401D4000014B1A607047C04600E100E080229202014B1A607047C04680E100E010B50400FFF7F4FF2000FFF7D1FF0320FFF7D4FFFFF7E4FF10BDC04600230AE00D4A126817
:401D80003F210A400C49C95C8A4201D1033303E001332D2BF2D9032308490868084A02400A60084A944663441B78DBB2064A13607047C0462CFF0B40E42A000000002240B3
:401DC000FFFFFFBFCDF1FF0F28FF0B40034B18688023DB05184000D001207047000022401F2318401E3B8340014A13607047C04600E100E01F2318401E3B8340014A1360D0
:401E00007047C04680E100E001BE704770B504000D001F2802D90020FFF7F6FF1034A40080239B059C4664442068256070BDC04670B504000E00032902D90020FFF7E4FF9F
:401E40001F2C02D90020FFF7DFFF03252540ED00063500F0A2F9A408A400074B9C46644421680323AB4099430B003100A9401943216000F096F970BD00E400E010B504002B
:401E800006E0084B586800F07FF9074B9C46644480231B029C42F4D8024B9868604300F073F910BDCC0000200080FFFF70B582B000F0C0F800285DD000F06FF90500002324
:401EC0000AE02D4A12683F210A402C49C95C8A4201D1033303E001332D2BF2D903230021274A1160274A1268D20606D1254802681F318A4313390A430260234C2168234A9E
:401F00001140234A5A438023DB019C466244D20B013A5205520D0B001343A0225203134323601C4B1B680193302000F0EFF91A4A13688021C9050B4313602668174B1E401D
:401F4000002407E00120FFF799FF1034A30533430D4A1360EE2CF5D90120FFF78FFFFF239B051E43084B1E60019A0A4B1A60280000F017F902B070BD2CFF0B40E42A000005
:401F800028FF0B4034FF0B400800224000F800C040420F003000104000002240FFFF3FC030B587B0040000F0F8F80500FFF70EFF002803D0FFF7E0FE012100E00021104B4A
:401FC0001B6800930F4B1B680193033C0E4B1B5D02930E4B1B68039304AA0D4B04936B4605930C4B1A600C480C4A10601B68012901D1FFF75BFF280000F0D3F807B030BD1C
:4020000008010B4000010B40E42A000030001040B6EA0000080010401700008004001040034B1868C0231B02184000D00120704700010B40034B1B68002B01DA012000E09D
:40204000002070470000224010B500F0A6F8044A1368C02109020B43136000F0A2F810BD00010B4010B500F098F808490A68084B1A408024E40122430A600A681340802247
:40208000120213430B6000F08CF810BD00010B40FF3FFFFF70B5050000F07FF80400FFF7BFFF002803D0FFF7DDFF012100E0002108482840084A1568084B2B401843106039
:4020C0001368012901D1FFF7BFFF200000F069F870BDC0460404040010020B40FBFBFBFF10B5244B1B685B0715D5234B5B685B070ED5224B596A042001401F4C62688A43A8
:4021000062605A6A82435A629B69002B00D098470420FFF7BFFF174B1B685B0518D5164B5B685B0510D5154B596A8022D2001140114842688A434260596A114A0A405A62C9
:40214000DB69002B00D098478020C000FFF7A2FF084B1B685B030CD5074B5B685B0304D5064B1B6A002B00D098478020C002FFF791FF10BD10020B40E00000207003002094
:40218000FFFBFFFF000000000230800803D00138FDD1C046C046C0467047EFF3108072B6704780F310887047044B1A68044B1B78044909685B00D1527047C04638050020AE
:4021C000E02A00000C00284070B5224B1A78224952018A1850681B785B01CB181A7E013A1E4B1B78DBB29A421CD91C4C23780133DBB22370174D2B785B01CB1899682378ED
:40220000DBB29A00D3185A008A18154B1A60FFF7CDFA2878C0B22178C9B2FFF7DBFBFFF707FB16E000220D4B1A700E4AD1680E4B0B40D3600D4B1B78012B02D1FFF716F8BF
:4022400007E0084BDA6880218A43DA601A8901321A8170BD6B030020002700006A03002038050020BC030020FFFFFEFF6903002010B50122094B1A60FFF796FF084B1B6880
:40228000084A1343084A1360084B1A8901321A81D968074A0A40DA6010BDC04614002840C40000202008E88104002840BC0300207FFFFEFF10B50E4B1B785B010D4A9C58F5
:4022C0000D4B1A78D2B2D1008A1A9300E41801220A4B1A60FFF768FF094B1B68094A1343094A13602000FFF787FBFFF76DFF10BD6B030020002700006A0300201400284052
:40230000C40000202008E8810400284070B50400FFF743FF0500102C05D8104A136803218B43136016E0202C07D80C490B6803229343023A13430B600CE0302C07D80749AB
:402340000B6803229343013A13430B6002E00020FFF75AFD2800FFF724FF70BD30001040F7B5FA278368C58A0193038B867EBF005E43C37E04007B43F618019B28001988B3
:4023800000F0D0F881B2606800F0CCF8618A704300F0C8F80600208A3900704300F0C2F80649684300F0BEF80123002802D040085B00FAE7019A30001380FEBD00E1F505EC
:4023C00070B50400FA21438A807E1D04ED1A63688900584300F0A6F80100280000F0A2F8A36805001988E08A00F09CF880B26843104900F097F8A38A0A21584300F092F8B5
:4024000000230D4A216810258A425B410222D31A62325343984203D9013D4008062DF9D14B236421584300F07DF8E4682080E8B270BDC046A0860100A761000010B50024C4
:40244000A34200D00C880388101C9B009BB29A4200D2181C83B2221C9C4200D2021C93B20A805A08FF2A01D9FF2200E0D2B28A70CA70DB08FF2B00D9FF230B7110BD8B0880
:4024800013800F2393720023C90851809080D0801081D3727047937A30B594885B00041B9080DBB2002C01DB937202E00133937264420F23957A1D4053889572A34203D96C
:4024C000012B03D9013B00E0013353800F2D05D0002D03D053889D00AC4204D90023D0801081D3721DE0D488844201D9D08003E01489844200D21081D07A092802D801309C
:40250000D0720EE01089D488001B80B2834204D989088B4203D9013B00E0013353805388138030BD002243088B4274D303098B425FD3030A8B4244D3030B8B4228D3030C6D
:402540008B420DD3FF22090212BA030C8B4202D31212090265D0030B8B4219D300E0090AC30B8B4201D3CB03C01A5241830B8B4201D38B03C01A5241430B8B4201D34B03D6
:40258000C01A5241030B8B4201D30B03C01A5241C30A8B4201D3CB02C01A5241830A8B4201D38B02C01A5241430A8B4201D34B02C01A5241030A8B4201D30B02C01A5241E4
:4025C000CDD2C3098B4201D3CB01C01A524183098B4201D38B01C01A524143098B4201D34B01C01A524103098B4201D30B01C01A5241C3088B4201D3CB00C01A5241830875
:402600008B4201D38B00C01A524143088B4201D34B00C01A5241411A00D20146524110467047FFE701B5002000F006F802BDC0460029F7D076E770477047C046014B18684D
:402640007047C046480100200E4B70B500251E000D4CE41AA410A54204D0AB00F35898470135F8E700F056FA084B00251E00084CE41AA410A54204D0AB00F3589847013521
:40268000F8E770BD202B0000202B0000202B0000282B000003008218934202D019700133FAE770470000000000300F40000400400F40000438803E4058045F011801B4016B
:4026C0006C407008DC03B448EC08000004300F4001310F4001330F4003420F4002430F40202020202020202020202020202020202020202020202020202020202020202038
:4027000034270000DC030020F003002084010020440300200128000020000120C40100200900640028280A031E200000040000002C010000000302400803044000030440BD
:40274000040304400000F0002000000014050F00000302400803044000030440040304400000000F40000000180612000003024008030440000304400403044000000F00FC
:402780001000000010040C0000030240080304400003044004030440000000F0800000001C07150000030240080304400003044004030440F00000000200000004010300FB
:4027C0000002024008020440000204400402044000F00000080000000C030900000302400803044000030440040304400F00000001000000000000000002024008020440DF
:402800000002044004020440000F000004000000080206000000024008000440000004400400044000F00000080000000C0309000002024008020440000204400402044099
:40284000F0000000020000000401030000000240080004400000044004000440000F000004000000080206000004024008040440000404400404044000000F0010000000D8
:4028800010040C0000000240080004400000044004000440F00000000200000004010300000402400804044000040440040404400000F0002000000014050F000000024040
:4028C0000800044000000440040004400F0000000100000000000000000402400804044000040440040404400000000F400000001806120000010240080104400001044072
:402900000401044000F00000080000000C0309000001024008010440000104400401044000000F001000000010040C0000010240080104400001044004010440000F0000B4
:402940000400000008020600000102400801044000010440040104400000F0002000000014050F0000010240080104400001044004010440F00000000200000004010300D5
:40298000000202400802044000020440040204400F0000000100000000000000000102400801044000010440040104400F0000000100000000000000000202400802044025
:4029C000000204400402044000000F001000000010040C00000602400806044000060440040604400000F0002000000014050F00000202400802044000020440040204407C
:402A00000000F0002000000014050F000006024008060440000604400406044000000F001000000010040C00000202400802044000020440040204400000000F400000007C
:402A40001806120000060240080604400006044004060440000F0000040000000802060000020240080204400002044004020440000000F0800000001C07150000060240BF
:402A8000080604400006044004060440F00000000200000004010300000602400806044000060440040604400F0000000100000000000000160E0000D60D0000E00D0000FC
:402AC000EA0D0000FA0D0000040E00000E0E000000000000804F120000040000009F240000000000030405060708090A0B0C0E0F101112131415161718191B1C1D1E1F201C
:402B000021222325262728292A2B2E2F3031323334354300F8B5C046F8BC08BC9E4670472102000005040000F8B5C046F8BC08BC9E467047F9010000482B0000C000002043
:402B400090000000F0030000000000000008C0010000FF0F010000000000C05D80BB000030000000006CDC02F000000004040400000000000000000000000000000000002C
:402B800000000000000000000000000000000000122B00000000000000000000000000000000000000000000000000000000000000000000000000000000000000000000D8
:402BC00000000000000000000000000000000000E80000200000000000000000000000000000000000000000000000000000000000000000000000000000000000000000CD
:402C00000000000000000000000000000000000000000000000000000000000000000000000000000000000000000000000000000000000000000000000000000000000094
:402C40000000000000000000000000000000000000000000000000000000000000000000000000000000000000000000000000000000000000000000000000000000000054
:402C80000000000000000000000000000000000000000000000000000000000000000000000000000000000000000000000000000000000000000000000000000000000014
:402CC00000000000000000000000000000000000000000000000000000000000000000000000000000000000000000000000000000000000000000000000000000000000D4
:020000040001F9
:0200000490303A
:02000000540B9F
:0200000490402A
:4000000000000000000000000000000000000000000000000000000000000000000000000000000000000000000000000000000000000000000000000000000000000000C0
:400040000000000000000000000000000000000000000000000000000000000000000000000000000000000000000000000000000000000000000000000000000000000080
:0200000490501A
:0C0000000002112D11A10001113A65ACA5
:0200000490600A
:0100000001FE
:00000001FF